S01700004763634170706C69636174696F6E312E737265635B
S11300000C9434000C9451000C9451000C94510045
S11300100C9451000C9451000C9451000C94510018
S11300200C9451000C9451000C9451000C94510008
S11300300C9451000C9485000C9451000C945100C4
S11300400C9451000C9451000C945D000C945100DC
S11300500C9451000C9475000C9451000C945100B4
S11300600C9451000C94510011241FBECFEFD8E022
S1130070DEBFCDBF11E0A0E0B1E0E8E4F9E002C0EA
S113008005900D92A432B107D9F721E0A4E2B1E0C2
S113009001C01D92A734B207E1F70E9442010C94FB
S11300A0A2040C940000E0ECF0E0908195FFFDCFF9
S11300B08093C60080E090E008951F920F920FB6DF
S11300C00F9211248F93EF93FF93E6ECF0E080817D
S11300D080932D0180912D018083FF91EF918F9169
S11300E00F900FBE0F901F9018951F920F920FB68E
S11300F00F9211248F938091790080933E018F9108
S11301000F900FBE0F901F9018951F920F920FB66D
S11301100F9211242F933F934F935F936F937F9389
S11301208F939F93AF93BF93EF93FF93F894809132
S11301303E0190E090933D0180933C012091260183
S113014020932501843B910530F0211162C081E0A8
S1130150809326010AC0222319F01092260159C067
S113016080912601882309F445C0809124018F5F82
S1130170817080932401813059F480912B019091F6
S11301802C0190932A0180932901222379F141C003
S113019081113FC080912B0190912C0190932801F3
S11301A08093270110922C0110922B012091290198
S11301B030912A012817390760F5821B930B44E11B
S11301C0489F9001499F300D1124309333012093AF
S11301D0320140E050E060E67AEE80E090E00E9478
S11301E08301309339012093380113C08091260193
S11301F081110FC080912B0190912C01893C9105B4
S113020040F010923901109238011092330110928B
S11302103201809133018F93809132018F938091C9
S113022039018F93809138018F938EE091E09F93F1
S11302308F930E94C401789480912B0190912C019A
S1130240019690932C0180932B018FEF9FEF909355
S11302508500809384000F900F900F900F900F9063
S11302600F90FF91EF91BF91AF919F918F917F91EB
S11302706F915F914F913F912F910F900FBE0F900F
S11302801F901895E1E4F1E080E091E0938382838C
S1130290918380831092C50087E68093C400E1ECCB
S11302A0F0E0808188698083E2ECF0E08081826004
S11302B08083ECE7F0E01082808180648083808119
S11302C080628083EAE7F0E08081876080838081B8
S11302D08062808310927B0080818068808380812B
S11302E08860808380818064808381E080936F0054
S11302F08FEF9FEF909385008093840085E0809337
S113030081007894FFCF052E97FB1EF400940E9481
S11303109A0157FD07D00E94A20107FC03D04EF4B6
S11303200C949A0150954095309521953F4F4F4F2D
S11303305F4F089590958095709561957F4F8F4F8D
S11303409F4F0895A1E21A2EAA1BBB1BFD010DC0ED
S1130350AA1FBB1FEE1FFF1FA217B307E407F50771
S113036020F0A21BB30BE40BF50B661F771F881F4D
S1130370991F1A9469F760957095809590959B01E3
S1130380AC01BD01CF010895A0E0B0E0EAECF1E0DA
S11303900C947B04AE014B5F5F4FFA016191719144
S11303A0AF0180914301909144010E94DA01E2E09F
S11303B00C949704ABE0B0E0E0EEF1E00C946B0435
S11303C06C017B018A01FC0117821682838181FF03
S11303D0CCC1CE0101963C01F6019381F70193FD56
S11303E0859193FF81917F01882309F4BAC18532F5
S11303F039F493FD859193FF81917F01853229F42E
S1130400B60190E00E94D103E7CF912C212C312C2E
S1130410FFE1F315D8F08B3279F038F4803279F0BB
S11304208332A1F4232D20611DC08D3261F080330D
S113043069F4232D216016C0832D8260382EE32DAC
S1130440E4603E2E2AC0F32DF8601DC037FC2DC099
S113045020ED280F2A3040F08E32B9F436FC81C1E9
S1130460232D2064322E19C036FE06C08AE0989EE1
S1130470200D1124922E11C0EAE02E9E200D11248D
S1130480222EF32DF0623F2E08C08C3621F4832DEA
S11304908068382E02C0883641F4F70193FD8591B7
S11304A093FF81917F018111B3CF982F9F7D955444
S11304B0933028F40C5F1F4F9FE399830DC083365C
S11304C031F0833771F0833509F059C021C0F80148
S11304D0808189830E5F1F4F88248394912C53015C
S11304E013C02801F2E04F0E511CF801A080B18026
S11304F036FE03C0692D70E002C06FEF7FEFC501C7
S11305000E94C6034C018201F32DFF773F2E16C0D3
S1130510280122E0420E511CF801A080B18036FE71
S113052003C0692D70E002C06FEF7FEFC5010E9428
S1130530BB034C01F32DF0683F2E820133FC1BC03A
S1130540822D90E088169906B0F4B60180E290E01E
S11305500E94D1032A94F4CFF50137FC859137FE2C
S113056081915F01B60190E00E94D10321102A9489
S113057021E0821A91088114910471F7E8C084364D
S113058011F0893641F5F80137FE07C060817181A9
S1130590828193810C5F1F4F08C060817181072E97
S11305A0000C880B990B0E5F1F4FF32DFF763F2E27
S11305B097FF09C090958095709561957F4F8F4FF7
S11305C09F4FF0683F2E2AE030E0A3010E940D0403
S11305D0882E861845C0853731F4232D2F7EB22E00
S11305E02AE030E025C0932D997FB92E8F36C1F0D3
S11305F018F4883579F0B5C0803719F0883721F0C0
S1130600B0C0E92FE061BE2EB4FE0DC0FB2DF46036
S1130610BF2E09C034FE0AC0292F2660B22E06C0A0
S113062028E030E005C020E130E002C020E132E003
S1130630F801B7FE07C060817181828193810C5FEC
S11306401F4F06C06081718180E090E00E5F1F4FF4
S1130650A3010E940D04882E8618FB2DFF773F2EE0
S113066036FE0DC0232D2E7FA22E891458F434FE9D
S11306700BC032FC09C0832D8E7EA82E05C0B82C79
S1130680A32C03C0B82C01C0B92CA4FE0FC0FE01DA
S1130690E80DF11D8081803321F49A2D997EA92ED5
S11306A009C0A2FE06C0B394B39404C08A2D867810
S11306B009F0B394A3FC11C0A0FE06C0B21488F4E0
S11306C0280C922C9B180EC0B21460F4B60180E280
S11306D090E00E94D103B394F7CFB21418F42B180E
S11306E002C0982C212CA4FE10C0B60180E390E037
S11306F00E94D103A2FE17C0A1FC03C088E790E0CA
S113070002C088E590E0B6010CC08A2D867859F0C5
S1130710A1FE02C08BE201C080E2A7FC8DE2B6011B
S113072090E00E94D103891438F4B60180E390E08C
S11307300E94D1039A94F7CF8A94F301E80DF11D36
S11307408081B60190E00E94D1038110F5CF222070
S113075009F442CEB60180E290E00E94D1032A94CB
S1130760F6CFF6018681978102C08FEF9FEF2B961B
S1130770E2E10C948704FC01059061507040011083
S1130780D8F7809590958E0F9F1F0895FC016150B6
S1130790704001900110D8F7809590958E0F9F1F9F
S11307A008950F931F93CF93DF93FB01238121FDC2
S11307B003C08FEF9FEF2CC022FF16C046815781E4
S11307C0248135814217530744F4A081B1819D01EE
S11307D02F5F3F4F318320838C93268137812F5F96
S11307E03F4F3783268314C08B01EC01FB01008447
S11307F0F185E02D0995892BE1F6D80116968D91A6
S11308009C911797019617969C938E931697CE01F9
S1130810DF91CF911F910F910895FA01AA272830F3
S113082051F1203181F1E8946F936E7F6E5F7F4FB9
S11308308F4F9F4FAF4FB1E03ED0B4E03CD0670F35
S1130840781F891F9A1FA11D680F791F8A1F911D88
S1130850A11D6A0F711D811D911DA11D20D009F4D8
S113086068943F912AE0269F11243019305D31931A
S1130870DEF6CF010895462F4770405D4193B3E003
S11308800FD0C9F7F6CF462F4F70405D4A3318F0AA
S1130890495D31FD4052419302D0A9F7EACFB4E05B
S11308A0A6959795879577956795BA95C9F7009713
S11308B06105710508959B01AC010A2E06945795B4
S11308C0479537952795BA95C9F7620F731F841F0B
S11308D0951FA01D08952F923F924F925F926F92A1
S11308E07F928F929F92AF92BF92CF92DF92EF92BC
S11308F0FF920F931F93CF93DF93CDB7DEB7CA1B3D
S1130900DB0B0FB6F894DEBF0FBECDBF09942A8867
S1130910398848885F846E847D848C849B84AA840F
S1130920B984C884DF80EE80FD800C811B81AA819C
S1130930B981CE0FD11D0FB6F894DEBF0FBECDBF67
S10B0940ED010895F894FFCFC6
S113094800000003000000005300000000004250B3
S11309584D20257520494249202575202020202036
S10709680D0A000070
S9030000FC
